{
  "contractName": "NFT_Shop",
  "abi": [
    {
      "inputs": [
        {
          "internalType": "address",
          "name": "_tokenAddress",
          "type": "address"
        }
      ],
      "stateMutability": "nonpayable",
      "type": "constructor"
    },
    {
      "inputs": [
        {
          "internalType": "uint256",
          "name": "",
          "type": "uint256"
        }
      ],
      "name": "SellTokenList",
      "outputs": [
        {
          "internalType": "uint256",
          "name": "",
          "type": "uint256"
        }
      ],
      "stateMutability": "view",
      "type": "function"
    },
    {
      "inputs": [],
      "name": "Token",
      "outputs": [
        {
          "internalType": "contract MintNFT",
          "name": "",
          "type": "address"
        }
      ],
      "stateMutability": "view",
      "type": "function"
    },
    {
      "inputs": [
        {
          "internalType": "uint256",
          "name": "",
          "type": "uint256"
        }
      ],
      "name": "tokenPrices",
      "outputs": [
        {
          "internalType": "address",
          "name": "sellAddress",
          "type": "address"
        },
        {
          "internalType": "uint256",
          "name": "price",
          "type": "uint256"
        },
        {
          "internalType": "uint256",
          "name": "tokenTimestamp",
          "type": "uint256"
        }
      ],
      "stateMutability": "view",
      "type": "function"
    },
    {
      "inputs": [
        {
          "internalType": "uint256",
          "name": "_tokenId",
          "type": "uint256"
        },
        {
          "internalType": "uint256",
          "name": "_price",
          "type": "uint256"
        }
      ],
      "name": "SellsToken",
      "outputs": [],
      "stateMutability": "nonpayable",
      "type": "function"
    },
    {
      "inputs": [
        {
          "internalType": "uint256",
          "name": "_tokenId",
          "type": "uint256"
        }
      ],
      "name": "PurchaseToken",
      "outputs": [],
      "stateMutability": "payable",
      "type": "function"
    },
    {
      "inputs": [],
      "name": "getSellTokenList",
      "outputs": [
        {
          "components": [
            {
              "internalType": "address",
              "name": "sellAddress",
              "type": "address"
            },
            {
              "internalType": "uint256",
              "name": "price",
              "type": "uint256"
            },
            {
              "internalType": "uint256",
              "name": "tokenTimestamp",
              "type": "uint256"
            }
          ],
          "internalType": "struct NFT_Shop.TokenInfo[]",
          "name": "",
          "type": "tuple[]"
        }
      ],
      "stateMutability": "view",
      "type": "function"
    },
    {
      "inputs": [
        {
          "internalType": "address",
          "name": "_tokenOwner",
          "type": "address"
        }
      ],
      "name": "getOwnerToken",
      "outputs": [
        {
          "components": [
            {
              "internalType": "address",
              "name": "sellAddress",
              "type": "address"
            },
            {
              "internalType": "uint256",
              "name": "price",
              "type": "uint256"
            },
            {
              "internalType": "uint256",
              "name": "tokenTimestamp",
              "type": "uint256"
            }
          ],
          "internalType": "struct NFT_Shop.TokenInfo[]",
          "name": "",
          "type": "tuple[]"
        }
      ],
      "stateMutability": "view",
      "type": "function"
    },
    {
      "inputs": [
        {
          "internalType": "address",
          "name": "_tokenOwner",
          "type": "address"
        }
      ],
      "name": "getLatestToken",
      "outputs": [
        {
          "components": [
            {
              "internalType": "address",
              "name": "sellAddress",
              "type": "address"
            },
            {
              "internalType": "uint256",
              "name": "price",
              "type": "uint256"
            },
            {
              "internalType": "uint256",
              "name": "tokenTimestamp",
              "type": "uint256"
            }
          ],
          "internalType": "struct NFT_Shop.TokenInfo",
          "name": "",
          "type": "tuple"
        }
      ],
      "stateMutability": "view",
      "type": "function"
    },
    {
      "inputs": [
        {
          "internalType": "address",
          "name": "_owner",
          "type": "address"
        }
      ],
      "name": "getTokenInforOrAccount",
      "outputs": [
        {
          "internalType": "string[]",
          "name": "",
          "type": "string[]"
        }
      ],
      "stateMutability": "view",
      "type": "function"
    }
  ],
  "bytecode": "0x60806040523480156200001157600080fd5b5060405162001c6538038062001c658339818101604052810190620000379190620000e8565b806000806101000a81548173ffffffffffffffffffffffffffffffffffffffff021916908373ffffffffffffffffffffffffffffffffffffffff160217905550506200011a565b600080fd5b600073ffffffffffffffffffffffffffffffffffffffff82169050919050565b6000620000b08262000083565b9050919050565b620000c281620000a3565b8114620000ce57600080fd5b50565b600081519050620000e281620000b7565b92915050565b6000602082840312156200010157620001006200007e565b5b60006200011184828501620000d1565b91505092915050565b611b3b806200012a6000396000f3fe6080604052600436106100865760003560e01c8063a193f56011610059578063a193f5601461014a578063a4ad760b14610175578063c2412676146101b2578063e5afe3e6146101dd578063ea7f31a61461021c57610086565b80633048f5121461008b57806349df80a9146100a75780636ac7b2bc146100e4578063966c05741461010d575b600080fd5b6100a560048036038101906100a09190611179565b610259565b005b3480156100b357600080fd5b506100ce60048036038101906100c99190611204565b610475565b6040516100db9190611383565b60405180910390f35b3480156100f057600080fd5b5061010b600480360381019061010691906113a5565b610771565b005b34801561011957600080fd5b50610134600480360381019061012f9190611204565b610a25565b60405161014191906114f4565b60405180910390f35b34801561015657600080fd5b5061015f610c7d565b60405161016c91906114f4565b60405180910390f35b34801561018157600080fd5b5061019c60048036038101906101979190611204565b610dc4565b6040516101a99190611558565b60405180910390f35b3480156101be57600080fd5b506101c7610f8a565b6040516101d491906115d2565b60405180910390f35b3480156101e957600080fd5b5061020460048036038101906101ff9190611179565b610fae565b6040516102139392919061160b565b60405180910390f35b34801561022857600080fd5b50610243600480360381019061023e9190611179565b610ff8565b6040516102509190611642565b60405180910390f35b60008060009054906101000a900473ffffffffffffffffffffffffffffffffffffffff1673ffffffffffffffffffffffffffffffffffffffff16636352211e836040518263ffffffff1660e01b81526004016102b59190611642565b602060405180830381865afa1580156102d2573d6000803e3d6000fd5b505050506040513d601f19601f820116820180604052508101906102f69190611672565b90503373ffffffffffffffffffffffffffffffffffffffff168173ffffffffffffffffffffffffffffffffffffffff160361033057600080fd5b600060016000848152602001908152602001600020600101541161035357600080fd5b3460016000848152602001908152602001600020600101541061037557600080fd5b8073ffffffffffffffffffffffffffffffffffffffff166108fc349081150290604051600060405180830381858888f193505050501580156103bb573d6000803e3d6000fd5b5060008054906101000a900473ffffffffffffffffffffffffffffffffffffffff1673ffffffffffffffffffffffffffffffffffffffff166323b872dd8233856040518463ffffffff1660e01b81526004016104199392919061169f565b600060405180830381600087803b15801561043357600080fd5b505af1158015610447573d6000803e3d6000fd5b50505050600060016000848152602001908152602001600020600101819055506104708261101c565b505050565b606060008060009054906101000a900473ffffffffffffffffffffffffffffffffffffffff1673ffffffffffffffffffffffffffffffffffffffff166370a08231846040518263ffffffff1660e01b81526004016104d391906116d6565b602060405180830381865afa1580156104f0573d6000803e3d6000fd5b505050506040513d601f19601f820116820180604052508101906105149190611706565b905060008167ffffffffffffffff81111561053257610531611733565b5b6040519080825280602002602001820160405280156105605781602001602082028036833780820191505090505b50905060008267ffffffffffffffff81111561057f5761057e611733565b5b6040519080825280602002602001820160405280156105b257816020015b606081526020019060019003908161059d5790505b50905060005b838110156107655760008054906101000a900473ffffffffffffffffffffffffffffffffffffffff1673ffffffffffffffffffffffffffffffffffffffff16632f745c5987836040518363ffffffff1660e01b815260040161061b929190611762565b602060405180830381865afa158015610638573d6000803e3d6000fd5b505050506040513d601f19601f8201168201806040525081019061065c9190611706565b83828151811061066f5761066e61178b565b5b60200260200101818152505060008054906101000a900473ffffffffffffffffffffffffffffffffffffffff1673ffffffffffffffffffffffffffffffffffffffff1663c87b56dd8483815181106106ca576106c961178b565b5b60200260200101516040518263ffffffff1660e01b81526004016106ee9190611642565b600060405180830381865afa15801561070b573d6000803e3d6000fd5b505050506040513d6000823e3d601f19601f8201168201806040525081019061073491906118b1565b8282815181106107475761074661178b565b5b6020026020010181905250808061075d90611929565b9150506105b8565b50809350505050919050565b60008060009054906101000a900473ffffffffffffffffffffffffffffffffffffffff1673ffffffffffffffffffffffffffffffffffffffff16636352211e846040518263ffffffff1660e01b81526004016107cd9190611642565b602060405180830381865afa1580156107ea573d6000803e3d6000fd5b505050506040513d601f19601f8201168201806040525081019061080e9190611672565b90503373ffffffffffffffffffffffffffffffffffffffff168173ffffffffffffffffffffffffffffffffffffffff161461084857600080fd5b6000821161088b576040517f08c379a0000000000000000000000000000000000000000000000000000000008152600401610882906119f4565b60405180910390fd5b60008054906101000a900473ffffffffffffffffffffffffffffffffffffffff1673ffffffffffffffffffffffffffffffffffffffff1663e985e9c533306040518363ffffffff1660e01b81526004016108e6929190611a14565b602060405180830381865afa158015610903573d6000803e3d6000fd5b505050506040513d601f19601f820116820180604052508101906109279190611a75565b61093057600080fd5b6109386110f8565b33816000019073ffffffffffffffffffffffffffffffffffffffff16908173ffffffffffffffffffffffffffffffffffffffff16815250508281602001818152505042816040018181525050806001600086815260200190815260200160002060008201518160000160006101000a81548173ffffffffffffffffffffffffffffffffffffffff021916908373ffffffffffffffffffffffffffffffffffffffff1602179055506020820151816001015560408201518160020155905050600284908060018154018082558091505060019003906000526020600020016000909190919091505550505050565b606060008060009054906101000a900473ffffffffffffffffffffffffffffffffffffffff1673ffffffffffffffffffffffffffffffffffffffff166370a08231846040518263ffffffff1660e01b8152600401610a8391906116d6565b602060405180830381865afa158015610aa0573d6000803e3d6000fd5b505050506040513d601f19601f82011682018060405250810190610ac49190611706565b905060008103610ad357600080fd5b60008167ffffffffffffffff811115610aef57610aee611733565b5b604051908082528060200260200182016040528015610b2857816020015b610b156110f8565b815260200190600190039081610b0d5790505b50905060005b82811015610c725760008060009054906101000a900473ffffffffffffffffffffffffffffffffffffffff1673ffffffffffffffffffffffffffffffffffffffff16632f745c5987846040518363ffffffff1660e01b8152600401610b94929190611762565b602060405180830381865afa158015610bb1573d6000803e3d6000fd5b505050506040513d601f19601f82011682018060405250810190610bd59190611706565b905060006001600083815260200190815260200160002060010154905060006001600084815260200190815260200160002060020154905060405180606001604052803373ffffffffffffffffffffffffffffffffffffffff16815260200183815260200182815250858581518110610c5157610c5061178b565b5b60200260200101819052505050508080610c6a90611929565b915050610b2e565b508092505050919050565b6060600060028054905011610c9157600080fd5b600060028054905067ffffffffffffffff811115610cb257610cb1611733565b5b604051908082528060200260200182016040528015610ceb57816020015b610cd86110f8565b815260200190600190039081610cd05790505b50905060005b600280549050811015610dbc57600060028281548110610d1457610d1361178b565b5b9060005260206000200154905060006001600083815260200190815260200160002060010154905060006001600084815260200190815260200160002060020154905060405180606001604052803373ffffffffffffffffffffffffffffffffffffffff16815260200183815260200182815250858581518110610d9b57610d9a61178b565b5b60200260200101819052505050508080610db490611929565b915050610cf1565b508091505090565b610dcc6110f8565b60008060009054906101000a900473ffffffffffffffffffffffffffffffffffffffff1673ffffffffffffffffffffffffffffffffffffffff166370a08231846040518263ffffffff1660e01b8152600401610e2891906116d6565b602060405180830381865afa158015610e45573d6000803e3d6000fd5b505050506040513d601f19601f82011682018060405250810190610e699190611706565b905060008060009054906101000a900473ffffffffffffffffffffffffffffffffffffffff1673ffffffffffffffffffffffffffffffffffffffff16632f745c5985600185610eb89190611aa2565b6040518363ffffffff1660e01b8152600401610ed5929190611762565b602060405180830381865afa158015610ef2573d6000803e3d6000fd5b505050506040513d601f19601f82011682018060405250810190610f169190611706565b905060006001600083815260200190815260200160002060010154905060006001600084815260200190815260200160002060020154905060405180606001604052803373ffffffffffffffffffffffffffffffffffffffff16815260200183815260200182815250945050505050919050565b60008054906101000a900473ffffffffffffffffffffffffffffffffffffffff1681565b60016020528060005260406000206000915090508060000160009054906101000a900473ffffffffffffffffffffffffffffffffffffffff16908060010154908060020154905083565b6002818154811061100857600080fd5b906000526020600020016000915090505481565b600080600090505b6002805490508110156110ed5782600282815481106110465761104561178b565b5b9060005260206000200154036110da576002600160028054905061106a9190611aa2565b8154811061107b5761107a61178b565b5b90600052602060002001546002828154811061109a5761109961178b565b5b906000526020600020018190555060028054806110ba576110b9611ad6565b5b6001900381819060005260206000200160009055905560019150506110f3565b80806110e590611929565b915050611024565b50600090505b919050565b6040518060600160405280600073ffffffffffffffffffffffffffffffffffffffff16815260200160008152602001600081525090565b6000604051905090565b600080fd5b600080fd5b6000819050919050565b61115681611143565b811461116157600080fd5b50565b6000813590506111738161114d565b92915050565b60006020828403121561118f5761118e611139565b5b600061119d84828501611164565b91505092915050565b600073ffffffffffffffffffffffffffffffffffffffff82169050919050565b60006111d1826111a6565b9050919050565b6111e1816111c6565b81146111ec57600080fd5b50565b6000813590506111fe816111d8565b92915050565b60006020828403121561121a57611219611139565b5b6000611228848285016111ef565b91505092915050565b600081519050919050565b600082825260208201905092915050565b6000819050602082019050919050565b600081519050919050565b600082825260208201905092915050565b60005b8381101561129757808201518184015260208101905061127c565b60008484015250505050565b6000601f19601f8301169050919050565b60006112bf8261125d565b6112c98185611268565b93506112d9818560208601611279565b6112e2816112a3565b840191505092915050565b60006112f983836112b4565b905092915050565b6000602082019050919050565b600061131982611231565b611323818561123c565b9350836020820285016113358561124d565b8060005b85811015611371578484038952815161135285826112ed565b945061135d83611301565b925060208a01995050600181019050611339565b50829750879550505050505092915050565b6000602082019050818103600083015261139d818461130e565b905092915050565b600080604083850312156113bc576113bb611139565b5b60006113ca85828601611164565b92505060206113db85828601611164565b9150509250929050565b600081519050919050565b600082825260208201905092915050565b6000819050602082019050919050565b61141a816111c6565b82525050565b61142981611143565b82525050565b6060820160008201516114456000850182611411565b5060208201516114586020850182611420565b50604082015161146b6040850182611420565b50505050565b600061147d838361142f565b60608301905092915050565b6000602082019050919050565b60006114a1826113e5565b6114ab81856113f0565b93506114b683611401565b8060005b838110156114e75781516114ce8882611471565b97506114d983611489565b9250506001810190506114ba565b5085935050505092915050565b6000602082019050818103600083015261150e8184611496565b905092915050565b60608201600082015161152c6000850182611411565b50602082015161153f6020850182611420565b5060408201516115526040850182611420565b50505050565b600060608201905061156d6000830184611516565b92915050565b6000819050919050565b600061159861159361158e846111a6565b611573565b6111a6565b9050919050565b60006115aa8261157d565b9050919050565b60006115bc8261159f565b9050919050565b6115cc816115b1565b82525050565b60006020820190506115e760008301846115c3565b92915050565b6115f6816111c6565b82525050565b61160581611143565b82525050565b600060608201905061162060008301866115ed565b61162d60208301856115fc565b61163a60408301846115fc565b949350505050565b600060208201905061165760008301846115fc565b92915050565b60008151905061166c816111d8565b92915050565b60006020828403121561168857611687611139565b5b60006116968482850161165d565b91505092915050565b60006060820190506116b460008301866115ed565b6116c160208301856115ed565b6116ce60408301846115fc565b949350505050565b60006020820190506116eb60008301846115ed565b92915050565b6000815190506117008161114d565b92915050565b60006020828403121561171c5761171b611139565b5b600061172a848285016116f1565b91505092915050565b7f4e487b7100000000000000000000000000000000000000000000000000000000600052604160045260246000fd5b600060408201905061177760008301856115ed565b61178460208301846115fc565b9392505050565b7f4e487b7100000000000000000000000000000000000000000000000000000000600052603260045260246000fd5b600080fd5b600080fd5b6117cd826112a3565b810181811067ffffffffffffffff821117156117ec576117eb611733565b5b80604052505050565b60006117ff61112f565b905061180b82826117c4565b919050565b600067ffffffffffffffff82111561182b5761182a611733565b5b611834826112a3565b9050602081019050919050565b600061185461184f84611810565b6117f5565b9050828152602081018484840111156118705761186f6117bf565b5b61187b848285611279565b509392505050565b600082601f830112611898576118976117ba565b5b81516118a8848260208601611841565b91505092915050565b6000602082840312156118c7576118c6611139565b5b600082015167ffffffffffffffff8111156118e5576118e461113e565b5b6118f184828501611883565b91505092915050565b7f4e487b7100000000000000000000000000000000000000000000000000000000600052601160045260246000fd5b600061193482611143565b91507fffffffffffffffffffffffffffffffffffffffffffffffffffffffffffffffff8203611966576119656118fa565b5b600182019050919050565b600082825260208201905092915050565b7f5468652073656c6c696e6720707269636520796f75206f66666572656420697360008201527f206c657373207468616e207a65726f0000000000000000000000000000000000602082015250565b60006119de602f83611971565b91506119e982611982565b604082019050919050565b60006020820190508181036000830152611a0d816119d1565b9050919050565b6000604082019050611a2960008301856115ed565b611a3660208301846115ed565b9392505050565b60008115159050919050565b611a5281611a3d565b8114611a5d57600080fd5b50565b600081519050611a6f81611a49565b92915050565b600060208284031215611a8b57611a8a611139565b5b6000611a9984828501611a60565b91505092915050565b6000611aad82611143565b9150611ab883611143565b9250828203905081811115611ad057611acf6118fa565b5b92915050565b7f4e487b7100000000000000000000000000000000000000000000000000000000600052603160045260246000fdfea264697066735822122074a98fc9cfd81cb6990a3f8cb01a664a5904f2d55ef4968f497e446f22d62fe564736f6c63430008110033",
  "immutableReferences": {},
  "source": "// SPDX-License-Identifier: MIT\r\n\r\npragma solidity ^0.8.17;\r\n\r\nimport \"./MintNFT.sol\";\r\n\r\ncontract NFT_Shop {\r\n    // Token  , NFT_Token     .\r\n    MintNFT public Token;\r\n\r\n    //       NFT_Token CA    .\r\n    constructor(address _tokenAddress) {\r\n        Token = MintNFT(_tokenAddress);\r\n    }\r\n\r\n    // Token info \r\n    struct TokenInfo {\r\n        address sellAddress;\r\n        uint256 price;\r\n        uint256 tokenTimestamp;\r\n    }\r\n    //      \r\n    mapping(uint256 => TokenInfo) public tokenPrices;\r\n\r\n    //  NFT     \r\n    uint256[] public SellTokenList;\r\n\r\n    //   \r\n    function SellsToken(uint256 _tokenId, uint256 _price) public {\r\n        //    .\r\n        address tokenOwner = Token.ownerOf(_tokenId);\r\n\r\n        //           \r\n        require(tokenOwner == msg.sender);\r\n\r\n        //   0   \r\n        require(_price > 0, \"The selling price you offered is less than zero\");\r\n\r\n        // isApprovedForAll ( ( = ,  =  ) )\r\n        // :             CA .\r\n        // this SellToken  .\r\n        require(Token.isApprovedForAll(msg.sender, address(this)));\r\n        // opensea nft    setApprovedForAll()      NFT  opensea  .\r\n\r\n        //       \r\n        TokenInfo memory TokenInfoMemory;\r\n\r\n        TokenInfoMemory.sellAddress = msg.sender;\r\n        TokenInfoMemory.price = _price;\r\n        TokenInfoMemory.tokenTimestamp = block.timestamp;\r\n\r\n        tokenPrices[_tokenId] = TokenInfoMemory;\r\n\r\n        //     \r\n        SellTokenList.push(_tokenId);\r\n    }\r\n\r\n    //   \r\n    function PurchaseToken(uint256 _tokenId) public payable {\r\n        //    \r\n        address tokenOwner = Token.ownerOf(_tokenId);\r\n\r\n        //     \r\n        require(tokenOwner != msg.sender);\r\n\r\n        //       (tokenPrices    0    )\r\n        require(tokenPrices[_tokenId].price > 0);\r\n\r\n        //       \r\n        require(tokenPrices[_tokenId].price < msg.value);\r\n\r\n        // CA    \r\n        payable(tokenOwner).transfer(msg.value);\r\n\r\n        //   \r\n        Token.transferFrom(tokenOwner, msg.sender, _tokenId);\r\n\r\n        //     0 \r\n        tokenPrices[_tokenId].price = 0;\r\n        popSellToken(_tokenId);\r\n    }\r\n\r\n    function popSellToken(uint256 _tokenId) private returns (bool) {\r\n        for (uint256 i = 0; i < SellTokenList.length; i++) {\r\n            if (SellTokenList[i] == _tokenId) {\r\n                SellTokenList[i] = SellTokenList[SellTokenList.length - 1];\r\n                SellTokenList.pop();\r\n                return true;\r\n            }\r\n        }\r\n        return false;\r\n    }\r\n\r\n    //    ,   view  .\r\n    function getSellTokenList() public view returns (TokenInfo[] memory) {\r\n        //   \r\n        require(SellTokenList.length > 0);\r\n\r\n        // SellTokenList       .\r\n        // const arr = new Array(SellTokenList.length);   \r\n        TokenInfo[] memory list = new TokenInfo[](SellTokenList.length);\r\n\r\n        //\r\n        // struct TokenInfo {\r\n        //     address sellAddress;\r\n        //     uint256 price;\r\n        // }\r\n        for (uint256 i = 0; i < SellTokenList.length; i++) {\r\n            uint256 tokenId = SellTokenList[i];\r\n            uint256 price = tokenPrices[tokenId].price;\r\n            uint256 tokenTimestamp = tokenPrices[tokenId].tokenTimestamp;\r\n            // list    \r\n            list[i] = TokenInfo(msg.sender, price, tokenTimestamp);\r\n        }\r\n        // for   .\r\n        // [{tokenId : 20, Rank : 2, Type: 3, price : 100000},{tokenId : 13, Rank : 1, Type: 4, price : 100000}]\r\n        return list;\r\n    }\r\n\r\n    //   NFT  view \r\n    function getOwnerToken(address _tokenOwner)\r\n        public\r\n        view\r\n        returns (TokenInfo[] memory)\r\n    {\r\n        uint256 balance = Token.balanceOf(_tokenOwner);\r\n        //  \r\n        require(balance != 0);\r\n\r\n        // balance   \r\n        TokenInfo[] memory list = new TokenInfo[](balance);\r\n\r\n        for (uint256 i = 0; i < balance; i++) {\r\n            //      .\r\n            uint256 tokenId = Token.tokenOfOwnerByIndex(_tokenOwner, i);\r\n            uint256 price = tokenPrices[tokenId].price;\r\n            uint256 tokenTimestamp = tokenPrices[tokenId].tokenTimestamp;\r\n            list[i] = TokenInfo(msg.sender, price, tokenTimestamp);\r\n        }\r\n\r\n        return list;\r\n    }\r\n\r\n    //   NFT  view ,      \r\n    function getLatestToken(address _tokenOwner)\r\n        public\r\n        view\r\n        returns (TokenInfo memory)\r\n    {\r\n        uint256 _balance = Token.balanceOf(_tokenOwner);\r\n        uint256 tokenId = Token.tokenOfOwnerByIndex(_tokenOwner, _balance - 1);\r\n        uint256 price = tokenPrices[tokenId].price;\r\n        uint256 tokenTimestamp = tokenPrices[tokenId].tokenTimestamp;\r\n        return TokenInfo(msg.sender, price, tokenTimestamp);\r\n    }\r\n\r\n    // function _tokenOwner() public returns (uint256[] memory) {\r\n    //     for (uint256 i = 0; i < balanceOf(msg.sender); i++) {\r\n    //         ownerToken.push(tokenOfOwnerByIndex(msg.sender, i));\r\n    //     }\r\n    //     return ownerToken;\r\n    // }\r\n\r\n    //          \r\n    //      \r\n    //  EOA      \r\n    // for     \r\n    //    ERC-721   ID   \r\n    // tokenURI tokenid      \r\n    //    \r\n    // tuple => [uint,address] = [25,\"0x12f83hfj3nj1hs73nf74f84j48fj\"]\r\n    // tokenOfOwnerByIndex                     \r\n    // All tokenURI's for an address\r\n    function getTokenInforOrAccount(address _owner)\r\n        public\r\n        view\r\n        returns (string[] memory)\r\n    {\r\n        uint256 tokenCount = Token.balanceOf(_owner);\r\n        uint256[] memory tokenIds = new uint256[](tokenCount);\r\n        string[] memory tokenURIs = new string[](tokenCount);\r\n        for (uint256 i = 0; i < tokenCount; i++) {\r\n            tokenIds[i] = Token.tokenOfOwnerByIndex(_owner, i);\r\n            tokenURIs[i] = Token.tokenURI(tokenIds[i]);\r\n        }\r\n        return tokenURIs;\r\n    }\r\n}\r\n",
  "sourcePath": "C:\\Users\\HY\\Desktop\\nft_toy_project\\contracts\\NFT_Shop.sol",
  "compiler": {
    "name": "solc",
    "version": "0.8.17+commit.8df45f5f.Emscripten.clang"
  },
  "schemaVersion": "3.4.11",
  "updatedAt": "2022-12-26T16:06:55.887Z",
  "devdoc": {
    "kind": "dev",
    "methods": {},
    "version": 1
  },
  "userdoc": {
    "kind": "user",
    "methods": {},
    "version": 1
  }
}