{
  "contractName": "NFTtoken",
  "abi": [
    {
      "inputs": [
        {
          "internalType": "string",
          "name": "_name",
          "type": "string"
        },
        {
          "internalType": "string",
          "name": "_symbol",
          "type": "string"
        },
        {
          "internalType": "string",
          "name": "_metadataURI",
          "type": "string"
        }
      ],
      "stateMutability": "nonpayable",
      "type": "constructor"
    },
    {
      "anonymous": false,
      "inputs": [
        {
          "indexed": true,
          "internalType": "address",
          "name": "owner",
          "type": "address"
        },
        {
          "indexed": true,
          "internalType": "address",
          "name": "approved",
          "type": "address"
        },
        {
          "indexed": true,
          "internalType": "uint256",
          "name": "tokenId",
          "type": "uint256"
        }
      ],
      "name": "Approval",
      "type": "event"
    },
    {
      "anonymous": false,
      "inputs": [
        {
          "indexed": true,
          "internalType": "address",
          "name": "owner",
          "type": "address"
        },
        {
          "indexed": true,
          "internalType": "address",
          "name": "operator",
          "type": "address"
        },
        {
          "indexed": false,
          "internalType": "bool",
          "name": "approved",
          "type": "bool"
        }
      ],
      "name": "ApprovalForAll",
      "type": "event"
    },
    {
      "anonymous": false,
      "inputs": [
        {
          "indexed": true,
          "internalType": "address",
          "name": "previousOwner",
          "type": "address"
        },
        {
          "indexed": true,
          "internalType": "address",
          "name": "newOwner",
          "type": "address"
        }
      ],
      "name": "OwnershipTransferred",
      "type": "event"
    },
    {
      "anonymous": false,
      "inputs": [
        {
          "indexed": true,
          "internalType": "address",
          "name": "from",
          "type": "address"
        },
        {
          "indexed": true,
          "internalType": "address",
          "name": "to",
          "type": "address"
        },
        {
          "indexed": true,
          "internalType": "uint256",
          "name": "tokenId",
          "type": "uint256"
        }
      ],
      "name": "Transfer",
      "type": "event"
    },
    {
      "anonymous": false,
      "inputs": [
        {
          "indexed": false,
          "internalType": "address",
          "name": "nftTokenAddress",
          "type": "address"
        },
        {
          "indexed": false,
          "internalType": "uint256",
          "name": "nftTokenNum",
          "type": "uint256"
        }
      ],
      "name": "nftTokenList",
      "type": "event"
    },
    {
      "inputs": [],
      "name": "MAX_TOKEN_COUNT",
      "outputs": [
        {
          "internalType": "uint256",
          "name": "",
          "type": "uint256"
        }
      ],
      "stateMutability": "view",
      "type": "function"
    },
    {
      "inputs": [
        {
          "internalType": "address",
          "name": "to",
          "type": "address"
        },
        {
          "internalType": "uint256",
          "name": "tokenId",
          "type": "uint256"
        }
      ],
      "name": "approve",
      "outputs": [],
      "stateMutability": "nonpayable",
      "type": "function"
    },
    {
      "inputs": [
        {
          "internalType": "address",
          "name": "owner",
          "type": "address"
        }
      ],
      "name": "balanceOf",
      "outputs": [
        {
          "internalType": "uint256",
          "name": "",
          "type": "uint256"
        }
      ],
      "stateMutability": "view",
      "type": "function"
    },
    {
      "inputs": [
        {
          "internalType": "uint256",
          "name": "tokenId",
          "type": "uint256"
        }
      ],
      "name": "getApproved",
      "outputs": [
        {
          "internalType": "address",
          "name": "",
          "type": "address"
        }
      ],
      "stateMutability": "view",
      "type": "function"
    },
    {
      "inputs": [
        {
          "internalType": "address",
          "name": "owner",
          "type": "address"
        },
        {
          "internalType": "address",
          "name": "operator",
          "type": "address"
        }
      ],
      "name": "isApprovedForAll",
      "outputs": [
        {
          "internalType": "bool",
          "name": "",
          "type": "bool"
        }
      ],
      "stateMutability": "view",
      "type": "function"
    },
    {
      "inputs": [],
      "name": "metadataURI",
      "outputs": [
        {
          "internalType": "string",
          "name": "",
          "type": "string"
        }
      ],
      "stateMutability": "view",
      "type": "function"
    },
    {
      "inputs": [],
      "name": "mint_price",
      "outputs": [
        {
          "internalType": "uint256",
          "name": "",
          "type": "uint256"
        }
      ],
      "stateMutability": "view",
      "type": "function"
    },
    {
      "inputs": [],
      "name": "name",
      "outputs": [
        {
          "internalType": "string",
          "name": "",
          "type": "string"
        }
      ],
      "stateMutability": "view",
      "type": "function"
    },
    {
      "inputs": [],
      "name": "owner",
      "outputs": [
        {
          "internalType": "address",
          "name": "",
          "type": "address"
        }
      ],
      "stateMutability": "view",
      "type": "function"
    },
    {
      "inputs": [
        {
          "internalType": "uint256",
          "name": "tokenId",
          "type": "uint256"
        }
      ],
      "name": "ownerOf",
      "outputs": [
        {
          "internalType": "address",
          "name": "",
          "type": "address"
        }
      ],
      "stateMutability": "view",
      "type": "function"
    },
    {
      "inputs": [],
      "name": "renounceOwnership",
      "outputs": [],
      "stateMutability": "nonpayable",
      "type": "function"
    },
    {
      "inputs": [
        {
          "internalType": "address",
          "name": "from",
          "type": "address"
        },
        {
          "internalType": "address",
          "name": "to",
          "type": "address"
        },
        {
          "internalType": "uint256",
          "name": "tokenId",
          "type": "uint256"
        }
      ],
      "name": "safeTransferFrom",
      "outputs": [],
      "stateMutability": "nonpayable",
      "type": "function"
    },
    {
      "inputs": [
        {
          "internalType": "address",
          "name": "from",
          "type": "address"
        },
        {
          "internalType": "address",
          "name": "to",
          "type": "address"
        },
        {
          "internalType": "uint256",
          "name": "tokenId",
          "type": "uint256"
        },
        {
          "internalType": "bytes",
          "name": "_data",
          "type": "bytes"
        }
      ],
      "name": "safeTransferFrom",
      "outputs": [],
      "stateMutability": "nonpayable",
      "type": "function"
    },
    {
      "inputs": [
        {
          "internalType": "address",
          "name": "operator",
          "type": "address"
        },
        {
          "internalType": "bool",
          "name": "approved",
          "type": "bool"
        }
      ],
      "name": "setApprovalForAll",
      "outputs": [],
      "stateMutability": "nonpayable",
      "type": "function"
    },
    {
      "inputs": [
        {
          "internalType": "bytes4",
          "name": "interfaceId",
          "type": "bytes4"
        }
      ],
      "name": "supportsInterface",
      "outputs": [
        {
          "internalType": "bool",
          "name": "",
          "type": "bool"
        }
      ],
      "stateMutability": "view",
      "type": "function"
    },
    {
      "inputs": [],
      "name": "symbol",
      "outputs": [
        {
          "internalType": "string",
          "name": "",
          "type": "string"
        }
      ],
      "stateMutability": "view",
      "type": "function"
    },
    {
      "inputs": [
        {
          "internalType": "uint256",
          "name": "index",
          "type": "uint256"
        }
      ],
      "name": "tokenByIndex",
      "outputs": [
        {
          "internalType": "uint256",
          "name": "",
          "type": "uint256"
        }
      ],
      "stateMutability": "view",
      "type": "function"
    },
    {
      "inputs": [
        {
          "internalType": "uint256",
          "name": "",
          "type": "uint256"
        }
      ],
      "name": "tokenCount",
      "outputs": [
        {
          "internalType": "uint256",
          "name": "",
          "type": "uint256"
        }
      ],
      "stateMutability": "view",
      "type": "function"
    },
    {
      "inputs": [
        {
          "internalType": "address",
          "name": "owner",
          "type": "address"
        },
        {
          "internalType": "uint256",
          "name": "index",
          "type": "uint256"
        }
      ],
      "name": "tokenOfOwnerByIndex",
      "outputs": [
        {
          "internalType": "uint256",
          "name": "",
          "type": "uint256"
        }
      ],
      "stateMutability": "view",
      "type": "function"
    },
    {
      "inputs": [],
      "name": "totalSupply",
      "outputs": [
        {
          "internalType": "uint256",
          "name": "",
          "type": "uint256"
        }
      ],
      "stateMutability": "view",
      "type": "function"
    },
    {
      "inputs": [
        {
          "internalType": "address",
          "name": "from",
          "type": "address"
        },
        {
          "internalType": "address",
          "name": "to",
          "type": "address"
        },
        {
          "internalType": "uint256",
          "name": "tokenId",
          "type": "uint256"
        }
      ],
      "name": "transferFrom",
      "outputs": [],
      "stateMutability": "nonpayable",
      "type": "function"
    },
    {
      "inputs": [
        {
          "internalType": "address",
          "name": "newOwner",
          "type": "address"
        }
      ],
      "name": "transferOwnership",
      "outputs": [],
      "stateMutability": "nonpayable",
      "type": "function"
    },
    {
      "inputs": [],
      "name": "mintToken",
      "outputs": [],
      "stateMutability": "payable",
      "type": "function"
    },
    {
      "inputs": [
        {
          "internalType": "uint256",
          "name": "_tokenId",
          "type": "uint256"
        }
      ],
      "name": "tokenURI",
      "outputs": [
        {
          "internalType": "string",
          "name": "",
          "type": "string"
        }
      ],
      "stateMutability": "view",
      "type": "function"
    },
    {
      "inputs": [
        {
          "internalType": "string",
          "name": "_uri",
          "type": "string"
        }
      ],
      "name": "setMetadataURI",
      "outputs": [],
      "stateMutability": "nonpayable",
      "type": "function"
    },
    {
      "inputs": [
        {
          "internalType": "uint256",
          "name": "_tokenId",
          "type": "uint256"
        }
      ],
      "name": "mint",
      "outputs": [],
      "stateMutability": "nonpayable",
      "type": "function"
    },
    {
      "inputs": [
        {
          "internalType": "uint256",
          "name": "_tokenId",
          "type": "uint256"
        }
      ],
      "name": "mintArr",
      "outputs": [],
      "stateMutability": "nonpayable",
      "type": "function"
    },
    {
      "inputs": [
        {
          "internalType": "uint256",
          "name": "_tokenId",
          "type": "uint256"
        }
      ],
      "name": "burn",
      "outputs": [],
      "stateMutability": "nonpayable",
      "type": "function"
    },
    {
      "inputs": [
        {
          "internalType": "uint256",
          "name": "_tokenId",
          "type": "uint256"
        }
      ],
      "name": "burnArr",
      "outputs": [],
      "stateMutability": "nonpayable",
      "type": "function"
    },
    {
      "inputs": [],
      "name": "getTokenCount",
      "outputs": [
        {
          "internalType": "uint256[]",
          "name": "",
          "type": "uint256[]"
        }
      ],
      "stateMutability": "view",
      "type": "function"
    }
  ],
  "bytecode": "0x60806040526001600b553480156200001657600080fd5b506040516200525f3803806200525f83398181016040528101906200003c919062000aff565b828281600090816200004f919062000e03565b50806001908162000061919062000e03565b50505062000084620000786200010260201b60201c565b6200010a60201b60201c565b80600c908162000095919062000e03565b506000600190505b603d811015620000f857600d819080600181540180825580915050600190039060005260206000200160009091909190915055620000e23382620001d060201b60201c565b8080620000ef9062000f19565b9150506200009d565b50505050620011c7565b600033905090565b6000600a60009054906101000a900473ffffffffffffffffffffffffffffffffffffffff16905081600a60006101000a81548173ffffffffffffffffffffffffffffffffffffffff021916908373ffffffffffffffffffffffffffffffffffffffff1602179055508173ffffffffffffffffffffffffffffffffffffffff168173ffffffffffffffffffffffffffffffffffffffff167f8be0079c531659141344cd1fd0a4f28419497f9722a3daafe3b4186f6b6457e060405160405180910390a35050565b600073ffffffffffffffffffffffffffffffffffffffff168273ffffffffffffffffffffffffffffffffffffffff160362000242576040517f08c379a0000000000000000000000000000000000000000000000000000000008152600401620002399062000fc7565b60405180910390fd5b6200025381620003c960201b60201c565b1562000296576040517f08c379a00000000000000000000000000000000000000000000000000000000081526004016200028d9062001039565b60405180910390fd5b620002aa600083836200043560201b60201c565b6001600360008473ffffffffffffffffffffffffffffffffffffffff1673ffffffffffffffffffffffffffffffffffffffff1681526020019081526020016000206000828254620002fc91906200105b565b92505081905550816002600083815260200190815260200160002060006101000a81548173ffffffffffffffffffffffffffffffffffffffff021916908373ffffffffffffffffffffffffffffffffffffffff160217905550808273ffffffffffffffffffffffffffffffffffffffff16600073ffffffffffffffffffffffffffffffffffffffff167fddf252ad1be2c89b69c2b068fc378daa952ba7f163c4a11628f55a4df523b3ef60405160405180910390a4620003c5600083836200057a60201b60201c565b5050565b60008073ffffffffffffffffffffffffffffffffffffffff166002600084815260200190815260200160002060009054906101000a900473ffffffffffffffffffffffffffffffffffffffff1673ffffffffffffffffffffffffffffffffffffffff1614159050919050565b6200044d8383836200057f60201b620013891760201c565b600073ffffffffffffffffffffffffffffffffffffffff168373ffffffffffffffffffffffffffffffffffffffff1603620004995762000493816200058460201b60201c565b620004e1565b8173ffffffffffffffffffffffffffffffffffffffff168373ffffffffffffffffffffffffffffffffffffffff1614620004e057620004df8382620005cd60201b60201c565b5b5b600073ffffffffffffffffffffffffffffffffffffffff168273ffffffffffffffffffffffffffffffffffffffff16036200052d5762000527816200074a60201b60201c565b62000575565b8273ffffffffffffffffffffffffffffffffffffffff168273ffffffffffffffffffffffffffffffffffffffff161462000574576200057382826200082660201b60201c565b5b5b505050565b505050565b505050565b6008805490506009600083815260200190815260200160002081905550600881908060018154018082558091505060019003906000526020600020016000909190919091505550565b60006001620005e784620008b260201b62000e511760201c565b620005f3919062001096565b9050600060076000848152602001908152602001600020549050818114620006d9576000600660008673ffffffffffffffffffffffffffffffffffffffff1673ffffffffffffffffffffffffffffffffffffffff168152602001908152602001600020600084815260200190815260200160002054905080600660008773ffffffffffffffffffffffffffffffffffffffff1673ffffffffffffffffffffffffffffffffffffffff168152602001908152602001600020600084815260200190815260200160002081905550816007600083815260200190815260200160002081905550505b6007600084815260200190815260200160002060009055600660008573ffffffffffffffffffffffffffffffffffffffff1673ffffffffffffffffffffffffffffffffffffffff16815260200190815260200160002060008381526020019081526020016000206000905550505050565b6000600160088054905062000760919062001096565b9050600060096000848152602001908152602001600020549050600060088381548110620007935762000792620010d1565b5b906000526020600020015490508060088381548110620007b857620007b7620010d1565b5b9060005260206000200181905550816009600083815260200190815260200160002081905550600960008581526020019081526020016000206000905560088054806200080a576200080962001100565b5b6001900381819060005260206000200160009055905550505050565b60006200083e83620008b260201b62000e511760201c565b905081600660008573ffffffffffffffffffffffffffffffffffffffff1673ffffffffffffffffffffffffffffffffffffffff168152602001908152602001600020600083815260200190815260200160002081905550806007600084815260200190815260200160002081905550505050565b60008073ffffffffffffffffffffffffffffffffffffffff168273ffffffffffffffffffffffffffffffffffffffff160362000925576040517f08c379a00000000000000000000000000000000000000000000000000000000081526004016200091c90620011a5565b60405180910390fd5b600360008373ffffffffffffffffffffffffffffffffffffffff1673ffffffffffffffffffffffffffffffffffffffff168152602001908152602001600020549050919050565b6000604051905090565b600080fd5b600080fd5b600080fd5b600080fd5b6000601f19601f8301169050919050565b7f4e487b7100000000000000000000000000000000000000000000000000000000600052604160045260246000fd5b620009d5826200098a565b810181811067ffffffffffffffff82111715620009f757620009f66200099b565b5b80604052505050565b600062000a0c6200096c565b905062000a1a8282620009ca565b919050565b600067ffffffffffffffff82111562000a3d5762000a3c6200099b565b5b62000a48826200098a565b9050602081019050919050565b60005b8381101562000a7557808201518184015260208101905062000a58565b60008484015250505050565b600062000a9862000a928462000a1f565b62000a00565b90508281526020810184848401111562000ab75762000ab662000985565b5b62000ac484828562000a55565b509392505050565b600082601f83011262000ae45762000ae362000980565b5b815162000af684826020860162000a81565b91505092915050565b60008060006060848603121562000b1b5762000b1a62000976565b5b600084015167ffffffffffffffff81111562000b3c5762000b3b6200097b565b5b62000b4a8682870162000acc565b935050602084015167ffffffffffffffff81111562000b6e5762000b6d6200097b565b5b62000b7c8682870162000acc565b925050604084015167ffffffffffffffff81111562000ba05762000b9f6200097b565b5b62000bae8682870162000acc565b9150509250925092565b600081519050919050565b7f4e487b7100000000000000000000000000000000000000000000000000000000600052602260045260246000fd5b6000600282049050600182168062000c0b57607f821691505b60208210810362000c215762000c2062000bc3565b5b50919050565b60008190508160005260206000209050919050565b60006020601f8301049050919050565b600082821b905092915050565b60006008830262000c8b7fffffffffffffffffffffffffffffffffffffffffffffffffffffffffffffffff8262000c4c565b62000c97868362000c4c565b95508019841693508086168417925050509392505050565b6000819050919050565b6000819050919050565b600062000ce462000cde62000cd88462000caf565b62000cb9565b62000caf565b9050919050565b6000819050919050565b62000d008362000cc3565b62000d1862000d0f8262000ceb565b84845462000c59565b825550505050565b600090565b62000d2f62000d20565b62000d3c81848462000cf5565b505050565b5b8181101562000d645762000d5860008262000d25565b60018101905062000d42565b5050565b601f82111562000db35762000d7d8162000c27565b62000d888462000c3c565b8101602085101562000d98578190505b62000db062000da78562000c3c565b83018262000d41565b50505b505050565b600082821c905092915050565b600062000dd86000198460080262000db8565b1980831691505092915050565b600062000df3838362000dc5565b9150826002028217905092915050565b62000e0e8262000bb8565b67ffffffffffffffff81111562000e2a5762000e296200099b565b5b62000e36825462000bf2565b62000e4382828562000d68565b600060209050601f83116001811462000e7b576000841562000e66578287015190505b62000e72858262000de5565b86555062000ee2565b601f19841662000e8b8662000c27565b60005b8281101562000eb55784890151825560018201915060208501945060208101905062000e8e565b8683101562000ed5578489015162000ed1601f89168262000dc5565b8355505b6001600288020188555050505b505050505050565b7f4e487b7100000000000000000000000000000000000000000000000000000000600052601160045260246000fd5b600062000f268262000caf565b91507fffffffffffffffffffffffffffffffffffffffffffffffffffffffffffffffff820362000f5b5762000f5a62000eea565b5b600182019050919050565b600082825260208201905092915050565b7f4552433732313a206d696e7420746f20746865207a65726f2061646472657373600082015250565b600062000faf60208362000f66565b915062000fbc8262000f77565b602082019050919050565b6000602082019050818103600083015262000fe28162000fa0565b9050919050565b7f4552433732313a20746f6b656e20616c7265616479206d696e74656400000000600082015250565b600062001021601c8362000f66565b91506200102e8262000fe9565b602082019050919050565b60006020820190508181036000830152620010548162001012565b9050919050565b6000620010688262000caf565b9150620010758362000caf565b925082820190508082111562001090576200108f62000eea565b5b92915050565b6000620010a38262000caf565b9150620010b08362000caf565b9250828203905081811115620010cb57620010ca62000eea565b5b92915050565b7f4e487b7100000000000000000000000000000000000000000000000000000000600052603260045260246000fd5b7f4e487b7100000000000000000000000000000000000000000000000000000000600052603160045260246000fd5b7f4552433732313a2062616c616e636520717565727920666f7220746865207a6560008201527f726f206164647265737300000000000000000000000000000000000000000000602082015250565b60006200118d602a8362000f66565b91506200119a826200112f565b604082019050919050565b60006020820190508181036000830152620011c0816200117e565b9050919050565b61408880620011d76000396000f3fe6080604052600436106101cd5760003560e01c8063715018a6116100f7578063b88d4fde11610095578063dd9d8bb311610064578063dd9d8bb31461067b578063e985e9c5146106a4578063f2fde38b146106e1578063f7568a961461070a576101cd565b8063b88d4fde146105ad578063c87b56dd146105d6578063d0bbb0d714610613578063da374e2a1461063e576101cd565b80638da5cb5b116100d15780638da5cb5b1461050557806395d89b4114610530578063a0712d681461055b578063a22cb46514610584576101cd565b8063715018a61461049a578063750521f5146104b157806378a89567146104da576101cd565b80632004ffd91161016f57806342966c681161013e57806342966c68146103ba5780634f6ccce7146103e35780636352211e1461042057806370a082311461045d576101cd565b80632004ffd91461032157806323b872dd1461032b5780632f745c591461035457806342842e0e14610391576101cd565b8063081812fc116101ab578063081812fc14610265578063095ea7b3146102a257806318160ddd146102cb5780631a4231a4146102f6576101cd565b806301ffc9a7146101d257806303ee438c1461020f57806306fdde031461023a575b600080fd5b3480156101de57600080fd5b506101f960048036038101906101f4919061270d565b610733565b6040516102069190612755565b60405180910390f35b34801561021b57600080fd5b506102246107ad565b6040516102319190612800565b60405180910390f35b34801561024657600080fd5b5061024f61083b565b60405161025c9190612800565b60405180910390f35b34801561027157600080fd5b5061028c60048036038101906102879190612858565b6108cd565b60405161029991906128c6565b60405180910390f35b3480156102ae57600080fd5b506102c960048036038101906102c4919061290d565b610952565b005b3480156102d757600080fd5b506102e0610a69565b6040516102ed919061295c565b60405180910390f35b34801561030257600080fd5b5061030b610a76565b604051610318919061295c565b60405180910390f35b610329610a7c565b005b34801561033757600080fd5b50610352600480360381019061034d9190612977565b610bfe565b005b34801561036057600080fd5b5061037b6004803603810190610376919061290d565b610c5e565b604051610388919061295c565b60405180910390f35b34801561039d57600080fd5b506103b860048036038101906103b39190612977565b610d03565b005b3480156103c657600080fd5b506103e160048036038101906103dc9190612858565b610d23565b005b3480156103ef57600080fd5b5061040a60048036038101906104059190612858565b610d2f565b604051610417919061295c565b60405180910390f35b34801561042c57600080fd5b5061044760048036038101906104429190612858565b610da0565b60405161045491906128c6565b60405180910390f35b34801561046957600080fd5b50610484600480360381019061047f91906129ca565b610e51565b604051610491919061295c565b60405180910390f35b3480156104a657600080fd5b506104af610f08565b005b3480156104bd57600080fd5b506104d860048036038101906104d39190612b2c565b610f90565b005b3480156104e657600080fd5b506104ef610fa3565b6040516104fc9190612c33565b60405180910390f35b34801561051157600080fd5b5061051a610ffb565b60405161052791906128c6565b60405180910390f35b34801561053c57600080fd5b50610545611025565b6040516105529190612800565b60405180910390f35b34801561056757600080fd5b50610582600480360381019061057d9190612858565b6110b7565b005b34801561059057600080fd5b506105ab60048036038101906105a69190612c81565b6110c4565b005b3480156105b957600080fd5b506105d460048036038101906105cf9190612d62565b6110da565b005b3480156105e257600080fd5b506105fd60048036038101906105f89190612858565b61113c565b60405161060a9190612800565b60405180910390f35b34801561061f57600080fd5b50610628611176565b604051610635919061295c565b60405180910390f35b34801561064a57600080fd5b5061066560048036038101906106609190612858565b61117b565b604051610672919061295c565b60405180910390f35b34801561068757600080fd5b506106a2600480360381019061069d9190612858565b61119f565b005b3480156106b057600080fd5b506106cb60048036038101906106c69190612de5565b6111ce565b6040516106d89190612755565b60405180910390f35b3480156106ed57600080fd5b50610708600480360381019061070391906129ca565b611262565b005b34801561071657600080fd5b50610731600480360381019061072c9190612858565b611359565b005b60007f780e9d63000000000000000000000000000000000000000000000000000000007bffffffffffffffffffffffffffffffffffffffffffffffffffffffff1916827bffffffffffffffffffffffffffffffffffffffffffffffffffffffff191614806107a657506107a58261138e565b5b9050919050565b600c80546107ba90612e54565b80601f01602080910402602001604051908101604052809291908181526020018280546107e690612e54565b80156108335780601f1061080857610100808354040283529160200191610833565b820191906000526020600020905b81548152906001019060200180831161081657829003601f168201915b505050505081565b60606000805461084a90612e54565b80601f016020809104026020016040519081016040528092919081815260200182805461087690612e54565b80156108c35780601f10610898576101008083540402835291602001916108c3565b820191906000526020600020905b8154815290600101906020018083116108a657829003601f168201915b5050505050905090565b60006108d882611470565b610917576040517f08c379a000000000000000000000000000000000000000000000000000000000815260040161090e90612ef7565b60405180910390fd5b6004600083815260200190815260200160002060009054906101000a900473ffffffffffffffffffffffffffffffffffffffff169050919050565b600061095d82610da0565b90508073ffffffffffffffffffffffffffffffffffffffff168373ffffffffffffffffffffffffffffffffffffffff16036109cd576040517f08c379a00000000000000000000000000000000000000000000000000000000081526004016109c490612f89565b60405180910390fd5b8073ffffffffffffffffffffffffffffffffffffffff166109ec6114dc565b73ffffffffffffffffffffffffffffffffffffffff161480610a1b5750610a1a81610a156114dc565b6111ce565b5b610a5a576040517f08c379a0000000000000000000000000000000000000000000000000000000008152600401610a519061301b565b60405180910390fd5b610a6483836114e4565b505050565b6000600880549050905090565b600b5481565b600b543411610ac0576040517f08c379a0000000000000000000000000000000000000000000000000000000008152600401610ab7906130ad565b60405180910390fd5b610ac8610a69565b603d11610b0a576040517f08c379a0000000000000000000000000000000000000000000000000000000008152600401610b019061313f565b60405180910390fd5b60006001610b16610a69565b610b20919061318e565b90506000603c338342604051602001610b3b9392919061322b565b6040516020818303038152906040528051906020012060001c610b5e9190613297565b9050610b698161159d565b7f29d67ca671121902ae706cd40844afe4c94bb9f8a2d2d7c5fb541e4a7f9bd7b43382604051610b9a9291906132c8565b60405180910390a1610baa610ffb565b73ffffffffffffffffffffffffffffffffffffffff166108fc349081150290604051600060405180830381858888f19350505050158015610bef573d6000803e3d6000fd5b50610bfa3382611648565b5050565b610c0f610c096114dc565b82611821565b610c4e576040517f08c379a0000000000000000000000000000000000000000000000000000000008152600401610c4590613363565b60405180910390fd5b610c598383836118ff565b505050565b6000610c6983610e51565b8210610caa576040517f08c379a0000000000000000000000000000000000000000000000000000000008152600401610ca1906133f5565b60405180910390fd5b600660008473ffffffffffffffffffffffffffffffffffffffff1673ffffffffffffffffffffffffffffffffffffffff168152602001908152602001600020600083815260200190815260200160002054905092915050565b610d1e838383604051806020016040528060008152506110da565b505050565b610d2c81611b65565b50565b6000610d39610a69565b8210610d7a576040517f08c379a0000000000000000000000000000000000000000000000000000000008152600401610d7190613487565b60405180910390fd5b60088281548110610d8e57610d8d6134a7565b5b90600052602060002001549050919050565b6000806002600084815260200190815260200160002060009054906101000a900473ffffffffffffffffffffffffffffffffffffffff169050600073ffffffffffffffffffffffffffffffffffffffff168173ffffffffffffffffffffffffffffffffffffffff1603610e48576040517f08c379a0000000000000000000000000000000000000000000000000000000008152600401610e3f90613548565b60405180910390fd5b80915050919050565b60008073ffffffffffffffffffffffffffffffffffffffff168273ffffffffffffffffffffffffffffffffffffffff1603610ec1576040517f08c379a0000000000000000000000000000000000000000000000000000000008152600401610eb8906135da565b60405180910390fd5b600360008373ffffffffffffffffffffffffffffffffffffffff1673ffffffffffffffffffffffffffffffffffffffff168152602001908152602001600020549050919050565b610f106114dc565b73ffffffffffffffffffffffffffffffffffffffff16610f2e610ffb565b73ffffffffffffffffffffffffffffffffffffffff1614610f84576040517f08c379a0000000000000000000000000000000000000000000000000000000008152600401610f7b90613646565b60405180910390fd5b610f8e6000611c82565b565b80600c9081610f9f9190613812565b5050565b6060600d805480602002602001604051908101604052809291908181526020018280548015610ff157602002820191906000526020600020905b815481526020019060010190808311610fdd575b5050505050905090565b6000600a60009054906101000a900473ffffffffffffffffffffffffffffffffffffffff16905090565b60606001805461103490612e54565b80601f016020809104026020016040519081016040528092919081815260200182805461106090612e54565b80156110ad5780601f10611082576101008083540402835291602001916110ad565b820191906000526020600020905b81548152906001019060200180831161109057829003601f168201915b5050505050905090565b6110c13382611648565b50565b6110d66110cf6114dc565b8383611d48565b5050565b6110eb6110e56114dc565b83611821565b61112a576040517f08c379a000000000000000000000000000000000000000000000000000000000815260040161112190613363565b60405180910390fd5b61113684848484611eb4565b50505050565b6060600061114983611f10565b9050600c8160405160200161115f929190613a3b565b604051602081830303815290604052915050919050565b603d81565b600d818154811061118b57600080fd5b906000526020600020016000915090505481565b6000600190505b818110156111ca576111b781611b65565b80806111c290613a75565b9150506111a6565b5050565b6000600560008473ffffffffffffffffffffffffffffffffffffffff1673ffffffffffffffffffffffffffffffffffffffff16815260200190815260200160002060008373ffffffffffffffffffffffffffffffffffffffff1673ffffffffffffffffffffffffffffffffffffffff16815260200190815260200160002060009054906101000a900460ff16905092915050565b61126a6114dc565b73ffffffffffffffffffffffffffffffffffffffff16611288610ffb565b73ffffffffffffffffffffffffffffffffffffffff16146112de576040517f08c379a00000000000000000000000000000000000000000000000000000000081526004016112d590613646565b60405180910390fd5b600073ffffffffffffffffffffffffffffffffffffffff168173ffffffffffffffffffffffffffffffffffffffff160361134d576040517f08c379a000000000000000000000000000000000000000000000000000000000815260040161134490613b2f565b60405180910390fd5b61135681611c82565b50565b6000600190505b81811015611385576113723382611648565b808061137d90613a75565b915050611360565b5050565b505050565b60007f80ac58cd000000000000000000000000000000000000000000000000000000007bffffffffffffffffffffffffffffffffffffffffffffffffffffffff1916827bffffffffffffffffffffffffffffffffffffffffffffffffffffffff1916148061145957507f5b5e139f000000000000000000000000000000000000000000000000000000007bffffffffffffffffffffffffffffffffffffffffffffffffffffffff1916827bffffffffffffffffffffffffffffffffffffffffffffffffffffffff1916145b80611469575061146882612070565b5b9050919050565b60008073ffffffffffffffffffffffffffffffffffffffff166002600084815260200190815260200160002060009054906101000a900473ffffffffffffffffffffffffffffffffffffffff1673ffffffffffffffffffffffffffffffffffffffff1614159050919050565b600033905090565b816004600083815260200190815260200160002060006101000a81548173ffffffffffffffffffffffffffffffffffffffff021916908373ffffffffffffffffffffffffffffffffffffffff160217905550808273ffffffffffffffffffffffffffffffffffffffff1661155783610da0565b73ffffffffffffffffffffffffffffffffffffffff167f8c5be1e5ebec7d5bd14f71427d1e84f3dd0314c0f7b2291e5b200ac8c7c3b92560405160405180910390a45050565b60008190505b6001600d805490506115b59190613b4f565b81101561161c57600d6001826115cb919061318e565b815481106115dc576115db6134a7565b5b9060005260206000200154600d82815481106115fb576115fa6134a7565b5b9060005260206000200181905550808061161490613a75565b9150506115a3565b50600d80548061162f5761162e613b83565b5b6001900381819060005260206000200160009055905550565b600073ffffffffffffffffffffffffffffffffffffffff168273ffffffffffffffffffffffffffffffffffffffff16036116b7576040517f08c379a00000000000000000000000000000000000000000000000000000000081526004016116ae90613bfe565b60405180910390fd5b6116c081611470565b15611700576040517f08c379a00000000000000000000000000000000000000000000000000000000081526004016116f790613c6a565b60405180910390fd5b61170c600083836120da565b6001600360008473ffffffffffffffffffffffffffffffffffffffff1673ffffffffffffffffffffffffffffffffffffffff168152602001908152602001600020600082825461175c919061318e565b92505081905550816002600083815260200190815260200160002060006101000a81548173ffffffffffffffffffffffffffffffffffffffff021916908373ffffffffffffffffffffffffffffffffffffffff160217905550808273ffffffffffffffffffffffffffffffffffffffff16600073ffffffffffffffffffffffffffffffffffffffff167fddf252ad1be2c89b69c2b068fc378daa952ba7f163c4a11628f55a4df523b3ef60405160405180910390a461181d600083836121ec565b5050565b600061182c82611470565b61186b576040517f08c379a000000000000000000000000000000000000000000000000000000000815260040161186290613cfc565b60405180910390fd5b600061187683610da0565b90508073ffffffffffffffffffffffffffffffffffffffff168473ffffffffffffffffffffffffffffffffffffffff1614806118b857506118b781856111ce565b5b806118f657508373ffffffffffffffffffffffffffffffffffffffff166118de846108cd565b73ffffffffffffffffffffffffffffffffffffffff16145b91505092915050565b8273ffffffffffffffffffffffffffffffffffffffff1661191f82610da0565b73ffffffffffffffffffffffffffffffffffffffff1614611975576040517f08c379a000000000000000000000000000000000000000000000000000000000815260040161196c90613d8e565b60405180910390fd5b600073ffffffffffffffffffffffffffffffffffffffff168273ffffffffffffffffffffffffffffffffffffffff16036119e4576040517f08c379a00000000000000000000000000000000000000000000000000000000081526004016119db90613e20565b60405180910390fd5b6119ef8383836120da565b6119fa6000826114e4565b6001600360008573ffffffffffffffffffffffffffffffffffffffff1673ffffffffffffffffffffffffffffffffffffffff1681526020019081526020016000206000828254611a4a9190613b4f565b925050819055506001600360008473ffffffffffffffffffffffffffffffffffffffff1673ffffffffffffffffffffffffffffffffffffffff1681526020019081526020016000206000828254611aa1919061318e565b92505081905550816002600083815260200190815260200160002060006101000a81548173ffffffffffffffffffffffffffffffffffffffff021916908373ffffffffffffffffffffffffffffffffffffffff160217905550808273ffffffffffffffffffffffffffffffffffffffff168473ffffffffffffffffffffffffffffffffffffffff167fddf252ad1be2c89b69c2b068fc378daa952ba7f163c4a11628f55a4df523b3ef60405160405180910390a4611b608383836121ec565b505050565b6000611b7082610da0565b9050611b7e816000846120da565b611b896000836114e4565b6001600360008373ffffffffffffffffffffffffffffffffffffffff1673ffffffffffffffffffffffffffffffffffffffff1681526020019081526020016000206000828254611bd99190613b4f565b925050819055506002600083815260200190815260200160002060006101000a81549073ffffffffffffffffffffffffffffffffffffffff021916905581600073ffffffffffffffffffffffffffffffffffffffff168273ffffffffffffffffffffffffffffffffffffffff167fddf252ad1be2c89b69c2b068fc378daa952ba7f163c4a11628f55a4df523b3ef60405160405180910390a4611c7e816000846121ec565b5050565b6000600a60009054906101000a900473ffffffffffffffffffffffffffffffffffffffff16905081600a60006101000a81548173ffffffffffffffffffffffffffffffffffffffff021916908373ffffffffffffffffffffffffffffffffffffffff1602179055508173ffffffffffffffffffffffffffffffffffffffff168173ffffffffffffffffffffffffffffffffffffffff167f8be0079c531659141344cd1fd0a4f28419497f9722a3daafe3b4186f6b6457e060405160405180910390a35050565b8173ffffffffffffffffffffffffffffffffffffffff168373ffffffffffffffffffffffffffffffffffffffff1603611db6576040517f08c379a0000000000000000000000000000000000000000000000000000000008152600401611dad90613e8c565b60405180910390fd5b80600560008573ffffffffffffffffffffffffffffffffffffffff1673ffffffffffffffffffffffffffffffffffffffff16815260200190815260200160002060008473ffffffffffffffffffffffffffffffffffffffff1673ffffffffffffffffffffffffffffffffffffffff16815260200190815260200160002060006101000a81548160ff0219169083151502179055508173ffffffffffffffffffffffffffffffffffffffff168373ffffffffffffffffffffffffffffffffffffffff167f17307eab39ab6107e8899845ad3d59bd9653f200f220920489ca2b5937696c3183604051611ea79190612755565b60405180910390a3505050565b611ebf8484846118ff565b611ecb848484846121f1565b611f0a576040517f08c379a0000000000000000000000000000000000000000000000000000000008152600401611f0190613f1e565b60405180910390fd5b50505050565b606060008203611f57576040518060400160405280600181526020017f3000000000000000000000000000000000000000000000000000000000000000815250905061206b565b600082905060005b60008214611f89578080611f7290613a75565b915050600a82611f829190613f3e565b9150611f5f565b60008167ffffffffffffffff811115611fa557611fa4612a01565b5b6040519080825280601f01601f191660200182016040528015611fd75781602001600182028036833780820191505090505b5090505b6000851461206457600182611ff09190613b4f565b9150600a85611fff9190613297565b603061200b919061318e565b60f81b818381518110612021576120206134a7565b5b60200101907effffffffffffffffffffffffffffffffffffffffffffffffffffffffffffff1916908160001a905350600a8561205d9190613f3e565b9450611fdb565b8093505050505b919050565b60007f01ffc9a7000000000000000000000000000000000000000000000000000000007bffffffffffffffffffffffffffffffffffffffffffffffffffffffff1916827bffffffffffffffffffffffffffffffffffffffffffffffffffffffff1916149050919050565b6120e5838383611389565b600073ffffffffffffffffffffffffffffffffffffffff168373ffffffffffffffffffffffffffffffffffffffff16036121275761212281612378565b612166565b8173ffffffffffffffffffffffffffffffffffffffff168373ffffffffffffffffffffffffffffffffffffffff16146121655761216483826123c1565b5b5b600073ffffffffffffffffffffffffffffffffffffffff168273ffffffffffffffffffffffffffffffffffffffff16036121a8576121a38161252e565b6121e7565b8273ffffffffffffffffffffffffffffffffffffffff168273ffffffffffffffffffffffffffffffffffffffff16146121e6576121e582826125ff565b5b5b505050565b505050565b60006122128473ffffffffffffffffffffffffffffffffffffffff1661267e565b1561236b578373ffffffffffffffffffffffffffffffffffffffff1663150b7a0261223b6114dc565b8786866040518563ffffffff1660e01b815260040161225d9493929190613fc4565b6020604051808303816000875af192505050801561229957506040513d601f19601f820116820180604052508101906122969190614025565b60015b61231b573d80600081146122c9576040519150601f19603f3d011682016040523d82523d6000602084013e6122ce565b606091505b506000815103612313576040517f08c379a000000000000000000000000000000000000000000000000000000000815260040161230a90613f1e565b60405180910390fd5b805181602001fd5b63150b7a0260e01b7bffffffffffffffffffffffffffffffffffffffffffffffffffffffff1916817bffffffffffffffffffffffffffffffffffffffffffffffffffffffff191614915050612370565b600190505b949350505050565b6008805490506009600083815260200190815260200160002081905550600881908060018154018082558091505060019003906000526020600020016000909190919091505550565b600060016123ce84610e51565b6123d89190613b4f565b90506000600760008481526020019081526020016000205490508181146124bd576000600660008673ffffffffffffffffffffffffffffffffffffffff1673ffffffffffffffffffffffffffffffffffffffff168152602001908152602001600020600084815260200190815260200160002054905080600660008773ffffffffffffffffffffffffffffffffffffffff1673ffffffffffffffffffffffffffffffffffffffff168152602001908152602001600020600084815260200190815260200160002081905550816007600083815260200190815260200160002081905550505b6007600084815260200190815260200160002060009055600660008573ffffffffffffffffffffffffffffffffffffffff1673ffffffffffffffffffffffffffffffffffffffff16815260200190815260200160002060008381526020019081526020016000206000905550505050565b600060016008805490506125429190613b4f565b9050600060096000848152602001908152602001600020549050600060088381548110612572576125716134a7565b5b906000526020600020015490508060088381548110612594576125936134a7565b5b9060005260206000200181905550816009600083815260200190815260200160002081905550600960008581526020019081526020016000206000905560088054806125e3576125e2613b83565b5b6001900381819060005260206000200160009055905550505050565b600061260a83610e51565b905081600660008573ffffffffffffffffffffffffffffffffffffffff1673ffffffffffffffffffffffffffffffffffffffff168152602001908152602001600020600083815260200190815260200160002081905550806007600084815260200190815260200160002081905550505050565b6000808273ffffffffffffffffffffffffffffffffffffffff163b119050919050565b6000604051905090565b600080fd5b600080fd5b60007fffffffff0000000000000000000000000000000000000000000000000000000082169050919050565b6126ea816126b5565b81146126f557600080fd5b50565b600081359050612707816126e1565b92915050565b600060208284031215612723576127226126ab565b5b6000612731848285016126f8565b91505092915050565b60008115159050919050565b61274f8161273a565b82525050565b600060208201905061276a6000830184612746565b92915050565b600081519050919050565b600082825260208201905092915050565b60005b838110156127aa57808201518184015260208101905061278f565b60008484015250505050565b6000601f19601f8301169050919050565b60006127d282612770565b6127dc818561277b565b93506127ec81856020860161278c565b6127f5816127b6565b840191505092915050565b6000602082019050818103600083015261281a81846127c7565b905092915050565b6000819050919050565b61283581612822565b811461284057600080fd5b50565b6000813590506128528161282c565b92915050565b60006020828403121561286e5761286d6126ab565b5b600061287c84828501612843565b91505092915050565b600073ffffffffffffffffffffffffffffffffffffffff82169050919050565b60006128b082612885565b9050919050565b6128c0816128a5565b82525050565b60006020820190506128db60008301846128b7565b92915050565b6128ea816128a5565b81146128f557600080fd5b50565b600081359050612907816128e1565b92915050565b60008060408385031215612924576129236126ab565b5b6000612932858286016128f8565b925050602061294385828601612843565b9150509250929050565b61295681612822565b82525050565b6000602082019050612971600083018461294d565b92915050565b6000806000606084860312156129905761298f6126ab565b5b600061299e868287016128f8565b93505060206129af868287016128f8565b92505060406129c086828701612843565b9150509250925092565b6000602082840312156129e0576129df6126ab565b5b60006129ee848285016128f8565b91505092915050565b600080fd5b600080fd5b7f4e487b7100000000000000000000000000000000000000000000000000000000600052604160045260246000fd5b612a39826127b6565b810181811067ffffffffffffffff82111715612a5857612a57612a01565b5b80604052505050565b6000612a6b6126a1565b9050612a778282612a30565b919050565b600067ffffffffffffffff821115612a9757612a96612a01565b5b612aa0826127b6565b9050602081019050919050565b82818337600083830152505050565b6000612acf612aca84612a7c565b612a61565b905082815260208101848484011115612aeb57612aea6129fc565b5b612af6848285612aad565b509392505050565b600082601f830112612b1357612b126129f7565b5b8135612b23848260208601612abc565b91505092915050565b600060208284031215612b4257612b416126ab565b5b600082013567ffffffffffffffff811115612b6057612b5f6126b0565b5b612b6c84828501612afe565b91505092915050565b600081519050919050565b600082825260208201905092915050565b6000819050602082019050919050565b612baa81612822565b82525050565b6000612bbc8383612ba1565b60208301905092915050565b6000602082019050919050565b6000612be082612b75565b612bea8185612b80565b9350612bf583612b91565b8060005b83811015612c26578151612c0d8882612bb0565b9750612c1883612bc8565b925050600181019050612bf9565b5085935050505092915050565b60006020820190508181036000830152612c4d8184612bd5565b905092915050565b612c5e8161273a565b8114612c6957600080fd5b50565b600081359050612c7b81612c55565b92915050565b60008060408385031215612c9857612c976126ab565b5b6000612ca6858286016128f8565b9250506020612cb785828601612c6c565b9150509250929050565b600067ffffffffffffffff821115612cdc57612cdb612a01565b5b612ce5826127b6565b9050602081019050919050565b6000612d05612d0084612cc1565b612a61565b905082815260208101848484011115612d2157612d206129fc565b5b612d2c848285612aad565b509392505050565b600082601f830112612d4957612d486129f7565b5b8135612d59848260208601612cf2565b91505092915050565b60008060008060808587031215612d7c57612d7b6126ab565b5b6000612d8a878288016128f8565b9450506020612d9b878288016128f8565b9350506040612dac87828801612843565b925050606085013567ffffffffffffffff811115612dcd57612dcc6126b0565b5b612dd987828801612d34565b91505092959194509250565b60008060408385031215612dfc57612dfb6126ab565b5b6000612e0a858286016128f8565b9250506020612e1b858286016128f8565b9150509250929050565b7f4e487b7100000000000000000000000000000000000000000000000000000000600052602260045260246000fd5b60006002820490506001821680612e6c57607f821691505b602082108103612e7f57612e7e612e25565b5b50919050565b7f4552433732313a20617070726f76656420717565727920666f72206e6f6e657860008201527f697374656e7420746f6b656e0000000000000000000000000000000000000000602082015250565b6000612ee1602c8361277b565b9150612eec82612e85565b604082019050919050565b60006020820190508181036000830152612f1081612ed4565b9050919050565b7f4552433732313a20617070726f76616c20746f2063757272656e74206f776e6560008201527f7200000000000000000000000000000000000000000000000000000000000000602082015250565b6000612f7360218361277b565b9150612f7e82612f17565b604082019050919050565b60006020820190508181036000830152612fa281612f66565b9050919050565b7f4552433732313a20617070726f76652063616c6c6572206973206e6f74206f7760008201527f6e6572206e6f7220617070726f76656420666f7220616c6c0000000000000000602082015250565b600061300560388361277b565b915061301082612fa9565b604082019050919050565b6000602082019050818103600083015261303481612ff8565b9050919050565b7f596f7572206d696e74696e672076616c7565206973206c657373207468616e2060008201527f6f7572206d696e74696e67207374616e64617264000000000000000000000000602082015250565b600061309760348361277b565b91506130a28261303b565b604082019050919050565b600060208201905081810360008301526130c68161308a565b9050919050565b7f596f75277665206578636565646564207468652076616c75652074686174207960008201527f6f752063616e206d696e74207065722064617900000000000000000000000000602082015250565b600061312960338361277b565b9150613134826130cd565b604082019050919050565b600060208201905081810360008301526131588161311c565b9050919050565b7f4e487b7100000000000000000000000000000000000000000000000000000000600052601160045260246000fd5b600061319982612822565b91506131a483612822565b92508282019050808211156131bc576131bb61315f565b5b92915050565b60008160601b9050919050565b60006131da826131c2565b9050919050565b60006131ec826131cf565b9050919050565b6132046131ff826128a5565b6131e1565b82525050565b6000819050919050565b61322561322082612822565b61320a565b82525050565b600061323782866131f3565b6014820191506132478285613214565b6020820191506132578284613214565b602082019150819050949350505050565b7f4e487b7100000000000000000000000000000000000000000000000000000000600052601260045260246000fd5b60006132a282612822565b91506132ad83612822565b9250826132bd576132bc613268565b5b828206905092915050565b60006040820190506132dd60008301856128b7565b6132ea602083018461294d565b9392505050565b7f4552433732313a207472616e736665722063616c6c6572206973206e6f74206f60008201527f776e6572206e6f7220617070726f766564000000000000000000000000000000602082015250565b600061334d60318361277b565b9150613358826132f1565b604082019050919050565b6000602082019050818103600083015261337c81613340565b9050919050565b7f455243373231456e756d657261626c653a206f776e657220696e646578206f7560008201527f74206f6620626f756e6473000000000000000000000000000000000000000000602082015250565b60006133df602b8361277b565b91506133ea82613383565b604082019050919050565b6000602082019050818103600083015261340e816133d2565b9050919050565b7f455243373231456e756d657261626c653a20676c6f62616c20696e646578206f60008201527f7574206f6620626f756e64730000000000000000000000000000000000000000602082015250565b6000613471602c8361277b565b915061347c82613415565b604082019050919050565b600060208201905081810360008301526134a081613464565b9050919050565b7f4e487b7100000000000000000000000000000000000000000000000000000000600052603260045260246000fd5b7f4552433732313a206f776e657220717565727920666f72206e6f6e657869737460008201527f656e7420746f6b656e0000000000000000000000000000000000000000000000602082015250565b600061353260298361277b565b915061353d826134d6565b604082019050919050565b6000602082019050818103600083015261356181613525565b9050919050565b7f4552433732313a2062616c616e636520717565727920666f7220746865207a6560008201527f726f206164647265737300000000000000000000000000000000000000000000602082015250565b60006135c4602a8361277b565b91506135cf82613568565b604082019050919050565b600060208201905081810360008301526135f3816135b7565b9050919050565b7f4f776e61626c653a2063616c6c6572206973206e6f7420746865206f776e6572600082015250565b600061363060208361277b565b915061363b826135fa565b602082019050919050565b6000602082019050818103600083015261365f81613623565b9050919050565b60008190508160005260206000209050919050565b60006020601f8301049050919050565b600082821b905092915050565b6000600883026136c87fffffffffffffffffffffffffffffffffffffffffffffffffffffffffffffffff8261368b565b6136d2868361368b565b95508019841693508086168417925050509392505050565b6000819050919050565b600061370f61370a61370584612822565b6136ea565b612822565b9050919050565b6000819050919050565b613729836136f4565b61373d61373582613716565b848454613698565b825550505050565b600090565b613752613745565b61375d818484613720565b505050565b5b818110156137815761377660008261374a565b600181019050613763565b5050565b601f8211156137c65761379781613666565b6137a08461367b565b810160208510156137af578190505b6137c36137bb8561367b565b830182613762565b50505b505050565b600082821c905092915050565b60006137e9600019846008026137cb565b1980831691505092915050565b600061380283836137d8565b9150826002028217905092915050565b61381b82612770565b67ffffffffffffffff81111561383457613833612a01565b5b61383e8254612e54565b613849828285613785565b600060209050601f83116001811461387c576000841561386a578287015190505b61387485826137f6565b8655506138dc565b601f19841661388a86613666565b60005b828110156138b25784890151825560018201915060208501945060208101905061388d565b868310156138cf57848901516138cb601f8916826137d8565b8355505b6001600288020188555050505b505050505050565b600081905092915050565b600081546138fc81612e54565b61390681866138e4565b94506001821660008114613921576001811461393657613969565b60ff1983168652811515820286019350613969565b61393f85613666565b60005b8381101561396157815481890152600182019150602081019050613942565b838801955050505b50505092915050565b7f2f00000000000000000000000000000000000000000000000000000000000000600082015250565b60006139a86001836138e4565b91506139b382613972565b600182019050919050565b60006139c982612770565b6139d381856138e4565b93506139e381856020860161278c565b80840191505092915050565b7f2e6a736f6e000000000000000000000000000000000000000000000000000000600082015250565b6000613a256005836138e4565b9150613a30826139ef565b600582019050919050565b6000613a4782856138ef565b9150613a528261399b565b9150613a5e82846139be565b9150613a6982613a18565b91508190509392505050565b6000613a8082612822565b91507fffffffffffffffffffffffffffffffffffffffffffffffffffffffffffffffff8203613ab257613ab161315f565b5b600182019050919050565b7f4f776e61626c653a206e6577206f776e657220697320746865207a65726f206160008201527f6464726573730000000000000000000000000000000000000000000000000000602082015250565b6000613b1960268361277b565b9150613b2482613abd565b604082019050919050565b60006020820190508181036000830152613b4881613b0c565b9050919050565b6000613b5a82612822565b9150613b6583612822565b9250828203905081811115613b7d57613b7c61315f565b5b92915050565b7f4e487b7100000000000000000000000000000000000000000000000000000000600052603160045260246000fd5b7f4552433732313a206d696e7420746f20746865207a65726f2061646472657373600082015250565b6000613be860208361277b565b9150613bf382613bb2565b602082019050919050565b60006020820190508181036000830152613c1781613bdb565b9050919050565b7f4552433732313a20746f6b656e20616c7265616479206d696e74656400000000600082015250565b6000613c54601c8361277b565b9150613c5f82613c1e565b602082019050919050565b60006020820190508181036000830152613c8381613c47565b9050919050565b7f4552433732313a206f70657261746f7220717565727920666f72206e6f6e657860008201527f697374656e7420746f6b656e0000000000000000000000000000000000000000602082015250565b6000613ce6602c8361277b565b9150613cf182613c8a565b604082019050919050565b60006020820190508181036000830152613d1581613cd9565b9050919050565b7f4552433732313a207472616e736665722066726f6d20696e636f72726563742060008201527f6f776e6572000000000000000000000000000000000000000000000000000000602082015250565b6000613d7860258361277b565b9150613d8382613d1c565b604082019050919050565b60006020820190508181036000830152613da781613d6b565b9050919050565b7f4552433732313a207472616e7366657220746f20746865207a65726f2061646460008201527f7265737300000000000000000000000000000000000000000000000000000000602082015250565b6000613e0a60248361277b565b9150613e1582613dae565b604082019050919050565b60006020820190508181036000830152613e3981613dfd565b9050919050565b7f4552433732313a20617070726f766520746f2063616c6c657200000000000000600082015250565b6000613e7660198361277b565b9150613e8182613e40565b602082019050919050565b60006020820190508181036000830152613ea581613e69565b9050919050565b7f4552433732313a207472616e7366657220746f206e6f6e20455243373231526560008201527f63656976657220696d706c656d656e7465720000000000000000000000000000602082015250565b6000613f0860328361277b565b9150613f1382613eac565b604082019050919050565b60006020820190508181036000830152613f3781613efb565b9050919050565b6000613f4982612822565b9150613f5483612822565b925082613f6457613f63613268565b5b828204905092915050565b600081519050919050565b600082825260208201905092915050565b6000613f9682613f6f565b613fa08185613f7a565b9350613fb081856020860161278c565b613fb9816127b6565b840191505092915050565b6000608082019050613fd960008301876128b7565b613fe660208301866128b7565b613ff3604083018561294d565b81810360608301526140058184613f8b565b905095945050505050565b60008151905061401f816126e1565b92915050565b60006020828403121561403b5761403a6126ab565b5b600061404984828501614010565b9150509291505056fea2646970667358221220033b5431c94b360e06d8e875394d65c4e355a21f67d55fc1ded5ff9173fccf9e64736f6c63430008110033",
  "immutableReferences": {},
  "source": "// SPDX-License-Identifier: MIT\r\npragma solidity ^0.8.17;\r\n\r\nimport \"openzeppelin-solidity/contracts/token/ERC721/extensions/ERC721Enumerable.sol\";\r\nimport \"openzeppelin-solidity/contracts/access/Ownable.sol\";\r\nimport \"openzeppelin-solidity/contracts/utils/Strings.sol\";\r\n\r\n// import \"./gazeaErc20.sol\";\r\n\r\ncontract NFTtoken is ERC721Enumerable, Ownable {\r\n    //   NFT  \r\n    event nftTokenList(address nftTokenAddress, uint256 nftTokenNum);\r\n    // NFT \r\n    uint256 public constant MAX_TOKEN_COUNT = 61;\r\n    // mint  \r\n    uint256 public mint_price = 1 wei;\r\n    // meta URI\r\n    string public metadataURI;\r\n\r\n    constructor(\r\n        string memory _name,\r\n        string memory _symbol,\r\n        string memory _metadataURI\r\n    ) ERC721(_name, _symbol) {\r\n        metadataURI = _metadataURI;\r\n        // NFT    \r\n        for (uint256 i = 1; i < MAX_TOKEN_COUNT; i++) {\r\n            tokenCount.push(i);\r\n            _mint(msg.sender, i);\r\n        }\r\n    }\r\n\r\n    // 1~100   \r\n    uint256[] public tokenCount;\r\n\r\n    //  \r\n    function mintToken() public payable {\r\n        require(\r\n            msg.value > mint_price,\r\n            \"Your minting value is less than our minting standard\"\r\n        );\r\n        require(\r\n            MAX_TOKEN_COUNT > totalSupply(),\r\n            \"You've exceeded the value that you can mint per day\"\r\n        );\r\n        uint256 total = totalSupply() + 1;\r\n        uint256 tokenId = uint256(\r\n            keccak256(abi.encodePacked(msg.sender, total, block.timestamp))\r\n        ) % 60;\r\n        getRandomNum(tokenId);\r\n        emit nftTokenList(msg.sender, tokenId);\r\n        payable(Ownable.owner()).transfer(msg.value);\r\n        _mint(msg.sender, tokenId);\r\n    }\r\n\r\n    function getRandomNum(uint256 randomNum) private {\r\n        //    \r\n        for (uint256 i = randomNum; i < tokenCount.length - 1; i++) {\r\n            tokenCount[i] = tokenCount[i + 1];\r\n        }\r\n        tokenCount.pop();\r\n    }\r\n\r\n    function tokenURI(uint256 _tokenId)\r\n        public\r\n        view\r\n        override\r\n        returns (string memory)\r\n    {\r\n        string memory _tokenIdString = string(Strings.toString(_tokenId));\r\n        return\r\n            string(abi.encodePacked(metadataURI, \"/\", _tokenIdString, \".json\"));\r\n    }\r\n\r\n    function setMetadataURI(string memory _uri) public {\r\n        metadataURI = _uri;\r\n    }\r\n\r\n    function mint(uint256 _tokenId) public {\r\n        _mint(msg.sender, _tokenId);\r\n    }\r\n\r\n    function mintArr(uint256 _tokenId) public {\r\n        for (uint256 i = 1; i < _tokenId; i++) {\r\n            _mint(msg.sender, i);\r\n        }\r\n    }\r\n\r\n    function burn(uint256 _tokenId) public {\r\n        _burn(_tokenId);\r\n    }\r\n\r\n    function burnArr(uint256 _tokenId) public {\r\n        for (uint256 i = 1; i < _tokenId; i++) {\r\n            _burn(i);\r\n        }\r\n    }\r\n\r\n    function getTokenCount() public view returns (uint256[] memory) {\r\n        return tokenCount;\r\n    }\r\n}\r\n",
  "sourcePath": "C:\\Users\\HY\\Desktop\\nft_toy_project\\contracts\\Mint_NFT.sol",
  "compiler": {
    "name": "solc",
    "version": "0.8.17+commit.8df45f5f.Emscripten.clang"
  },
  "schemaVersion": "3.4.11",
  "updatedAt": "2022-12-25T05:44:56.480Z",
  "devdoc": {
    "kind": "dev",
    "methods": {
      "approve(address,uint256)": {
        "details": "See {IERC721-approve}."
      },
      "balanceOf(address)": {
        "details": "See {IERC721-balanceOf}."
      },
      "getApproved(uint256)": {
        "details": "See {IERC721-getApproved}."
      },
      "isApprovedForAll(address,address)": {
        "details": "See {IERC721-isApprovedForAll}."
      },
      "name()": {
        "details": "See {IERC721Metadata-name}."
      },
      "owner()": {
        "details": "Returns the address of the current owner."
      },
      "ownerOf(uint256)": {
        "details": "See {IERC721-ownerOf}."
      },
      "renounceOwnership()": {
        "details": "Leaves the contract without owner. It will not be possible to call `onlyOwner` functions anymore. Can only be called by the current owner. NOTE: Renouncing ownership will leave the contract without an owner, thereby removing any functionality that is only available to the owner."
      },
      "safeTransferFrom(address,address,uint256)": {
        "details": "See {IERC721-safeTransferFrom}."
      },
      "safeTransferFrom(address,address,uint256,bytes)": {
        "details": "See {IERC721-safeTransferFrom}."
      },
      "setApprovalForAll(address,bool)": {
        "details": "See {IERC721-setApprovalForAll}."
      },
      "supportsInterface(bytes4)": {
        "details": "See {IERC165-supportsInterface}."
      },
      "symbol()": {
        "details": "See {IERC721Metadata-symbol}."
      },
      "tokenByIndex(uint256)": {
        "details": "See {IERC721Enumerable-tokenByIndex}."
      },
      "tokenOfOwnerByIndex(address,uint256)": {
        "details": "See {IERC721Enumerable-tokenOfOwnerByIndex}."
      },
      "totalSupply()": {
        "details": "See {IERC721Enumerable-totalSupply}."
      },
      "transferFrom(address,address,uint256)": {
        "details": "See {IERC721-transferFrom}."
      },
      "transferOwnership(address)": {
        "details": "Transfers ownership of the contract to a new account (`newOwner`). Can only be called by the current owner."
      }
    },
    "version": 1
  },
  "userdoc": {
    "kind": "user",
    "methods": {},
    "version": 1
  }
}